{
  "_format": "hh-sol-artifact-1",
  "contractName": "TaskContract",
  "sourceName": "contracts/TaskContract.sol",
  "abi": [
    {
      "anonymous": false,
      "inputs": [
        {
          "indexed": false,
          "internalType": "address",
          "name": "recipient",
          "type": "address"
        },
        {
          "indexed": false,
          "internalType": "uint256",
          "name": "taskId",
          "type": "uint256"
        }
      ],
      "name": "AddTask",
      "type": "event"
    },
    {
      "anonymous": false,
      "inputs": [
        {
          "indexed": false,
          "internalType": "uint256",
          "name": "taskId",
          "type": "uint256"
        },
        {
          "indexed": false,
          "internalType": "bool",
          "name": "isDeleted",
          "type": "bool"
        }
      ],
      "name": "DeleteTask",
      "type": "event"
    },
    {
      "anonymous": false,
      "inputs": [
        {
          "indexed": false,
          "internalType": "uint256",
          "name": "taskId",
          "type": "uint256"
        },
        {
          "indexed": false,
          "internalType": "string",
          "name": "newText",
          "type": "string"
        }
      ],
      "name": "EditTask",
      "type": "event"
    },
    {
      "inputs": [
        {
          "internalType": "string",
          "name": "taskText",
          "type": "string"
        },
        {
          "internalType": "bool",
          "name": "isDeteled",
          "type": "bool"
        }
      ],
      "name": "addTask",
      "outputs": [],
      "stateMutability": "nonpayable",
      "type": "function"
    },
    {
      "inputs": [
        {
          "internalType": "uint256",
          "name": "taskId",
          "type": "uint256"
        },
        {
          "internalType": "bool",
          "name": "isDeleted",
          "type": "bool"
        }
      ],
      "name": "deleteTask",
      "outputs": [],
      "stateMutability": "nonpayable",
      "type": "function"
    },
    {
      "inputs": [
        {
          "internalType": "uint256",
          "name": "taskId",
          "type": "uint256"
        },
        {
          "internalType": "string",
          "name": "newText",
          "type": "string"
        }
      ],
      "name": "editTask",
      "outputs": [],
      "stateMutability": "nonpayable",
      "type": "function"
    },
    {
      "inputs": [],
      "name": "getMyTasks",
      "outputs": [
        {
          "components": [
            {
              "internalType": "uint256",
              "name": "id",
              "type": "uint256"
            },
            {
              "internalType": "string",
              "name": "taskText",
              "type": "string"
            },
            {
              "internalType": "bool",
              "name": "isDeleted",
              "type": "bool"
            }
          ],
          "internalType": "struct TaskContract.Task[]",
          "name": "",
          "type": "tuple[]"
        }
      ],
      "stateMutability": "view",
      "type": "function"
    }
  ],
  "bytecode": "0x6080604052348015600f57600080fd5b506110918061001f6000396000f3fe608060405234801561001057600080fd5b506004361061004c5760003560e01c806320df4581146100515780636e13f8181461006d578063aaba29071461008b578063cb7bd995146100a7575b600080fd5b61006b600480360381019061006691906108ad565b6100c3565b005b610075610219565b6040516100829190610ac2565b60405180910390f35b6100a560048036038101906100a09190610b10565b610503565b005b6100c160048036038101906100bc9190610b50565b6105e4565b005b6000808054905090506000604051806060016040528083815260200185815260200184151581525090806001815401808255809150506001900390600052602060002090600302016000909190919091506000820151816000015560208201518160010190816101339190610db8565b5060408201518160020160006101000a81548160ff0219169083151502179055505050336001600083815260200190815260200160002060006101000a81548173ffffffffffffffffffffffffffffffffffffffff021916908373ffffffffffffffffffffffffffffffffffffffff1602179055507f1f54e1ba1832d428fbd7e7792beaf62b1fc5a382c207ffd614209c1413e94fda6001600083815260200190815260200160002060009054906101000a900473ffffffffffffffffffffffffffffffffffffffff168260405161020c929190610eda565b60405180910390a1505050565b60606000808054905067ffffffffffffffff81111561023b5761023a61074a565b5b60405190808252806020026020018201604052801561027457816020015b6102616106f8565b8152602001906001900390816102595790505b5090506000805b60008054905081101561044f573373ffffffffffffffffffffffffffffffffffffffff166001600083815260200190815260200160002060009054906101000a900473ffffffffffffffffffffffffffffffffffffffff1673ffffffffffffffffffffffffffffffffffffffff1614801561032c5750600015156000828154811061030957610308610f03565b5b906000526020600020906003020160020160009054906101000a900460ff161515145b15610442576000818154811061034557610344610f03565b5b90600052602060002090600302016040518060600160405290816000820154815260200160018201805461037890610bdb565b80601f01602080910402602001604051908101604052809291908181526020018280546103a490610bdb565b80156103f15780601f106103c6576101008083540402835291602001916103f1565b820191906000526020600020905b8154815290600101906020018083116103d457829003601f168201915b505050505081526020016002820160009054906101000a900460ff16151515158152505083838151811061042857610427610f03565b5b6020026020010181905250818061043e90610f61565b9250505b808060010191505061027b565b5060008167ffffffffffffffff81111561046c5761046b61074a565b5b6040519080825280602002602001820160405280156104a557816020015b6104926106f8565b81526020019060019003908161048a5790505b50905060005b828110156104f9578381815181106104c6576104c5610f03565b5b60200260200101518282815181106104e1576104e0610f03565b5b602002602001018190525080806001019150506104ab565b5080935050505090565b3373ffffffffffffffffffffffffffffffffffffffff166001600084815260200190815260200160002060009054906101000a900473ffffffffffffffffffffffffffffffffffffffff1673ffffffffffffffffffffffffffffffffffffffff16036105e057806000838154811061057e5761057d610f03565b5b906000526020600020906003020160020160006101000a81548160ff0219169083151502179055507ff88a35c3d2016c409a46570b994a17b408dbc83c14a03f521512d50b85386d0682826040516105d7929190610fb8565b60405180910390a15b5050565b3373ffffffffffffffffffffffffffffffffffffffff166001600084815260200190815260200160002060009054906101000a900473ffffffffffffffffffffffffffffffffffffffff1673ffffffffffffffffffffffffffffffffffffffff1614801561068257506000828154811061066157610660610f03565b5b906000526020600020906003020160020160009054906101000a900460ff16155b156106f457806000838154811061069c5761069b610f03565b5b906000526020600020906003020160010190816106b99190610db8565b507f98700df36a7311d7e5d21cbb3ea83de41b8aba1e37cd2db2533f725d05496cba82826040516106eb92919061102b565b60405180910390a15b5050565b604051806060016040528060008152602001606081526020016000151581525090565b6000604051905090565b600080fd5b600080fd5b600080fd5b600080fd5b6000601f19601f8301169050919050565b7f4e487b7100000000000000000000000000000000000000000000000000000000600052604160045260246000fd5b61078282610739565b810181811067ffffffffffffffff821117156107a1576107a061074a565b5b80604052505050565b60006107b461071b565b90506107c08282610779565b919050565b600067ffffffffffffffff8211156107e0576107df61074a565b5b6107e982610739565b9050602081019050919050565b82818337600083830152505050565b6000610818610813846107c5565b6107aa565b90508281526020810184848401111561083457610833610734565b5b61083f8482856107f6565b509392505050565b600082601f83011261085c5761085b61072f565b5b813561086c848260208601610805565b91505092915050565b60008115159050919050565b61088a81610875565b811461089557600080fd5b50565b6000813590506108a781610881565b92915050565b600080604083850312156108c4576108c3610725565b5b600083013567ffffffffffffffff8111156108e2576108e161072a565b5b6108ee85828601610847565b92505060206108ff85828601610898565b9150509250929050565b600081519050919050565b600082825260208201905092915050565b6000819050602082019050919050565b6000819050919050565b61094881610935565b82525050565b600081519050919050565b600082825260208201905092915050565b60005b8381101561098857808201518184015260208101905061096d565b60008484015250505050565b600061099f8261094e565b6109a98185610959565b93506109b981856020860161096a565b6109c281610739565b840191505092915050565b6109d681610875565b82525050565b60006060830160008301516109f4600086018261093f565b5060208301518482036020860152610a0c8282610994565b9150506040830151610a2160408601826109cd565b508091505092915050565b6000610a3883836109dc565b905092915050565b6000602082019050919050565b6000610a5882610909565b610a628185610914565b935083602082028501610a7485610925565b8060005b85811015610ab05784840389528151610a918582610a2c565b9450610a9c83610a40565b925060208a01995050600181019050610a78565b50829750879550505050505092915050565b60006020820190508181036000830152610adc8184610a4d565b905092915050565b610aed81610935565b8114610af857600080fd5b50565b600081359050610b0a81610ae4565b92915050565b60008060408385031215610b2757610b26610725565b5b6000610b3585828601610afb565b9250506020610b4685828601610898565b9150509250929050565b60008060408385031215610b6757610b66610725565b5b6000610b7585828601610afb565b925050602083013567ffffffffffffffff811115610b9657610b9561072a565b5b610ba285828601610847565b9150509250929050565b7f4e487b7100000000000000000000000000000000000000000000000000000000600052602260045260246000fd5b60006002820490506001821680610bf357607f821691505b602082108103610c0657610c05610bac565b5b50919050565b60008190508160005260206000209050919050565b60006020601f8301049050919050565b600082821b905092915050565b600060088302610c6e7fffffffffffffffffffffffffffffffffffffffffffffffffffffffffffffffff82610c31565b610c788683610c31565b95508019841693508086168417925050509392505050565b6000819050919050565b6000610cb5610cb0610cab84610935565b610c90565b610935565b9050919050565b6000819050919050565b610ccf83610c9a565b610ce3610cdb82610cbc565b848454610c3e565b825550505050565b600090565b610cf8610ceb565b610d03818484610cc6565b505050565b5b81811015610d2757610d1c600082610cf0565b600181019050610d09565b5050565b601f821115610d6c57610d3d81610c0c565b610d4684610c21565b81016020851015610d55578190505b610d69610d6185610c21565b830182610d08565b50505b505050565b600082821c905092915050565b6000610d8f60001984600802610d71565b1980831691505092915050565b6000610da88383610d7e565b9150826002028217905092915050565b610dc18261094e565b67ffffffffffffffff811115610dda57610dd961074a565b5b610de48254610bdb565b610def828285610d2b565b600060209050601f831160018114610e225760008415610e10578287015190505b610e1a8582610d9c565b865550610e82565b601f198416610e3086610c0c565b60005b82811015610e5857848901518255600182019150602085019450602081019050610e33565b86831015610e755784890151610e71601f891682610d7e565b8355505b6001600288020188555050505b505050505050565b600073ffffffffffffffffffffffffffffffffffffffff82169050919050565b6000610eb582610e8a565b9050919050565b610ec581610eaa565b82525050565b610ed481610935565b82525050565b6000604082019050610eef6000830185610ebc565b610efc6020830184610ecb565b9392505050565b7f4e487b7100000000000000000000000000000000000000000000000000000000600052603260045260246000fd5b7f4e487b7100000000000000000000000000000000000000000000000000000000600052601160045260246000fd5b6000610f6c82610935565b91507fffffffffffffffffffffffffffffffffffffffffffffffffffffffffffffffff8203610f9e57610f9d610f32565b5b600182019050919050565b610fb281610875565b82525050565b6000604082019050610fcd6000830185610ecb565b610fda6020830184610fa9565b9392505050565b600082825260208201905092915050565b6000610ffd8261094e565b6110078185610fe1565b935061101781856020860161096a565b61102081610739565b840191505092915050565b60006040820190506110406000830185610ecb565b81810360208301526110528184610ff2565b9050939250505056fea26469706673582212209aeac078466819ce2699ca860bef06a542b08dfafcd063296430a1027d7635c864736f6c634300081b0033",
  "linkReferences": {},
  "deployedLinkReferences": {}
}