{
  "_format": "hh-sol-artifact-1",
  "contractName": "TaskContract",
  "sourceName": "contracts/TaskContract.sol",
  "abi": [
    {
      "anonymous": false,
      "inputs": [
        {
          "indexed": false,
          "internalType": "address",
          "name": "recipient",
          "type": "address"
        },
        {
          "indexed": false,
          "internalType": "uint256",
          "name": "taskId",
          "type": "uint256"
        }
      ],
      "name": "AddTask",
      "type": "event"
    },
    {
      "anonymous": false,
      "inputs": [
        {
          "indexed": false,
          "internalType": "uint256",
          "name": "taskId",
          "type": "uint256"
        },
        {
          "indexed": false,
          "internalType": "bool",
          "name": "isDeleted",
          "type": "bool"
        }
      ],
      "name": "DeleteTask",
      "type": "event"
    },
    {
      "inputs": [
        {
          "internalType": "string",
          "name": "taskText",
          "type": "string"
        },
        {
          "internalType": "bool",
          "name": "isDeteled",
          "type": "bool"
        }
      ],
      "name": "addTask",
      "outputs": [],
      "stateMutability": "nonpayable",
      "type": "function"
    },
    {
      "inputs": [
        {
          "internalType": "uint256",
          "name": "taskId",
          "type": "uint256"
        },
        {
          "internalType": "bool",
          "name": "isDeleted",
          "type": "bool"
        }
      ],
      "name": "deleteTask",
      "outputs": [],
      "stateMutability": "nonpayable",
      "type": "function"
    },
    {
      "inputs": [],
      "name": "getMyTasks",
      "outputs": [
        {
          "components": [
            {
              "internalType": "uint256",
              "name": "id",
              "type": "uint256"
            },
            {
              "internalType": "string",
              "name": "taskText",
              "type": "string"
            },
            {
              "internalType": "bool",
              "name": "isDeleted",
              "type": "bool"
            }
          ],
          "internalType": "struct TaskContract.Task[]",
          "name": "",
          "type": "tuple[]"
        }
      ],
      "stateMutability": "view",
      "type": "function"
    }
  ],
  "bytecode": "0x6080604052348015600f57600080fd5b50610e808061001f6000396000f3fe608060405234801561001057600080fd5b50600436106100415760003560e01c806320df4581146100465780636e13f81814610062578063aaba290714610080575b600080fd5b610060600480360381019061005b9190610772565b61009c565b005b61006a6101f2565b6040516100779190610987565b60405180910390f35b61009a600480360381019061009591906109d5565b6104dc565b005b60008080549050905060006040518060600160405280838152602001858152602001841515815250908060018154018082558091505060019003906000526020600020906003020160009091909190915060008201518160000155602082015181600101908161010c9190610c21565b5060408201518160020160006101000a81548160ff0219169083151502179055505050336001600083815260200190815260200160002060006101000a81548173ffffffffffffffffffffffffffffffffffffffff021916908373ffffffffffffffffffffffffffffffffffffffff1602179055507f1f54e1ba1832d428fbd7e7792beaf62b1fc5a382c207ffd614209c1413e94fda6001600083815260200190815260200160002060009054906101000a900473ffffffffffffffffffffffffffffffffffffffff16826040516101e5929190610d43565b60405180910390a1505050565b60606000808054905067ffffffffffffffff8111156102145761021361060f565b5b60405190808252806020026020018201604052801561024d57816020015b61023a6105bd565b8152602001906001900390816102325790505b5090506000805b600080549050811015610428573373ffffffffffffffffffffffffffffffffffffffff166001600083815260200190815260200160002060009054906101000a900473ffffffffffffffffffffffffffffffffffffffff1673ffffffffffffffffffffffffffffffffffffffff16148015610305575060001515600082815481106102e2576102e1610d6c565b5b906000526020600020906003020160020160009054906101000a900460ff161515145b1561041b576000818154811061031e5761031d610d6c565b5b90600052602060002090600302016040518060600160405290816000820154815260200160018201805461035190610a44565b80601f016020809104026020016040519081016040528092919081815260200182805461037d90610a44565b80156103ca5780601f1061039f576101008083540402835291602001916103ca565b820191906000526020600020905b8154815290600101906020018083116103ad57829003601f168201915b505050505081526020016002820160009054906101000a900460ff16151515158152505083838151811061040157610400610d6c565b5b6020026020010181905250818061041790610dca565b9250505b8080600101915050610254565b5060008167ffffffffffffffff8111156104455761044461060f565b5b60405190808252806020026020018201604052801561047e57816020015b61046b6105bd565b8152602001906001900390816104635790505b50905060005b828110156104d25783818151811061049f5761049e610d6c565b5b60200260200101518282815181106104ba576104b9610d6c565b5b60200260200101819052508080600101915050610484565b5080935050505090565b3373ffffffffffffffffffffffffffffffffffffffff166001600084815260200190815260200160002060009054906101000a900473ffffffffffffffffffffffffffffffffffffffff1673ffffffffffffffffffffffffffffffffffffffff16036105b957806000838154811061055757610556610d6c565b5b906000526020600020906003020160020160006101000a81548160ff0219169083151502179055507ff88a35c3d2016c409a46570b994a17b408dbc83c14a03f521512d50b85386d0682826040516105b0929190610e21565b60405180910390a15b5050565b604051806060016040528060008152602001606081526020016000151581525090565b6000604051905090565b600080fd5b600080fd5b600080fd5b600080fd5b6000601f19601f8301169050919050565b7f4e487b7100000000000000000000000000000000000000000000000000000000600052604160045260246000fd5b610647826105fe565b810181811067ffffffffffffffff821117156106665761066561060f565b5b80604052505050565b60006106796105e0565b9050610685828261063e565b919050565b600067ffffffffffffffff8211156106a5576106a461060f565b5b6106ae826105fe565b9050602081019050919050565b82818337600083830152505050565b60006106dd6106d88461068a565b61066f565b9050828152602081018484840111156106f9576106f86105f9565b5b6107048482856106bb565b509392505050565b600082601f830112610721576107206105f4565b5b81356107318482602086016106ca565b91505092915050565b60008115159050919050565b61074f8161073a565b811461075a57600080fd5b50565b60008135905061076c81610746565b92915050565b60008060408385031215610789576107886105ea565b5b600083013567ffffffffffffffff8111156107a7576107a66105ef565b5b6107b38582860161070c565b92505060206107c48582860161075d565b9150509250929050565b600081519050919050565b600082825260208201905092915050565b6000819050602082019050919050565b6000819050919050565b61080d816107fa565b82525050565b600081519050919050565b600082825260208201905092915050565b60005b8381101561084d578082015181840152602081019050610832565b60008484015250505050565b600061086482610813565b61086e818561081e565b935061087e81856020860161082f565b610887816105fe565b840191505092915050565b61089b8161073a565b82525050565b60006060830160008301516108b96000860182610804565b50602083015184820360208601526108d18282610859565b91505060408301516108e66040860182610892565b508091505092915050565b60006108fd83836108a1565b905092915050565b6000602082019050919050565b600061091d826107ce565b61092781856107d9565b935083602082028501610939856107ea565b8060005b85811015610975578484038952815161095685826108f1565b945061096183610905565b925060208a0199505060018101905061093d565b50829750879550505050505092915050565b600060208201905081810360008301526109a18184610912565b905092915050565b6109b2816107fa565b81146109bd57600080fd5b50565b6000813590506109cf816109a9565b92915050565b600080604083850312156109ec576109eb6105ea565b5b60006109fa858286016109c0565b9250506020610a0b8582860161075d565b9150509250929050565b7f4e487b7100000000000000000000000000000000000000000000000000000000600052602260045260246000fd5b60006002820490506001821680610a5c57607f821691505b602082108103610a6f57610a6e610a15565b5b50919050565b60008190508160005260206000209050919050565b60006020601f8301049050919050565b600082821b905092915050565b600060088302610ad77fffffffffffffffffffffffffffffffffffffffffffffffffffffffffffffffff82610a9a565b610ae18683610a9a565b95508019841693508086168417925050509392505050565b6000819050919050565b6000610b1e610b19610b14846107fa565b610af9565b6107fa565b9050919050565b6000819050919050565b610b3883610b03565b610b4c610b4482610b25565b848454610aa7565b825550505050565b600090565b610b61610b54565b610b6c818484610b2f565b505050565b5b81811015610b9057610b85600082610b59565b600181019050610b72565b5050565b601f821115610bd557610ba681610a75565b610baf84610a8a565b81016020851015610bbe578190505b610bd2610bca85610a8a565b830182610b71565b50505b505050565b600082821c905092915050565b6000610bf860001984600802610bda565b1980831691505092915050565b6000610c118383610be7565b9150826002028217905092915050565b610c2a82610813565b67ffffffffffffffff811115610c4357610c4261060f565b5b610c4d8254610a44565b610c58828285610b94565b600060209050601f831160018114610c8b5760008415610c79578287015190505b610c838582610c05565b865550610ceb565b601f198416610c9986610a75565b60005b82811015610cc157848901518255600182019150602085019450602081019050610c9c565b86831015610cde5784890151610cda601f891682610be7565b8355505b6001600288020188555050505b505050505050565b600073ffffffffffffffffffffffffffffffffffffffff82169050919050565b6000610d1e82610cf3565b9050919050565b610d2e81610d13565b82525050565b610d3d816107fa565b82525050565b6000604082019050610d586000830185610d25565b610d656020830184610d34565b9392505050565b7f4e487b7100000000000000000000000000000000000000000000000000000000600052603260045260246000fd5b7f4e487b7100000000000000000000000000000000000000000000000000000000600052601160045260246000fd5b6000610dd5826107fa565b91507fffffffffffffffffffffffffffffffffffffffffffffffffffffffffffffffff8203610e0757610e06610d9b565b5b600182019050919050565b610e1b8161073a565b82525050565b6000604082019050610e366000830185610d34565b610e436020830184610e12565b939250505056fea2646970667358221220181b837bd195460f80ea85ae5ed9c1ccca85b5ecd3f9410e0bf886030f5640d564736f6c634300081b0033",
  "linkReferences": {},
  "deployedLinkReferences": {}
}